{
  "contractName": "ACH",
  "abi": [
    {
      "inputs": [
        {
          "internalType": "address",
          "name": "paiAddress",
          "type": "address"
        }
      ],
      "stateMutability": "nonpayable",
      "type": "constructor"
    },
    {
      "inputs": [],
      "name": "DOMAIN_SEPARATOR",
      "outputs": [
        {
          "internalType": "bytes32",
          "name": "",
          "type": "bytes32"
        }
      ],
      "stateMutability": "view",
      "type": "function",
      "constant": true
    },
    {
      "inputs": [],
      "name": "PAY_TYPEHASH",
      "outputs": [
        {
          "internalType": "bytes32",
          "name": "",
          "type": "bytes32"
        }
      ],
      "stateMutability": "view",
      "type": "function",
      "constant": true
    },
    {
      "inputs": [],
      "name": "name",
      "outputs": [
        {
          "internalType": "string",
          "name": "",
          "type": "string"
        }
      ],
      "stateMutability": "view",
      "type": "function",
      "constant": true
    },
    {
      "inputs": [
        {
          "internalType": "address",
          "name": "",
          "type": "address"
        }
      ],
      "name": "nonces",
      "outputs": [
        {
          "internalType": "uint256",
          "name": "",
          "type": "uint256"
        }
      ],
      "stateMutability": "view",
      "type": "function",
      "constant": true
    },
    {
      "inputs": [],
      "name": "pai",
      "outputs": [
        {
          "internalType": "contract TokenLike",
          "name": "",
          "type": "address"
        }
      ],
      "stateMutability": "view",
      "type": "function",
      "constant": true
    },
    {
      "inputs": [],
      "name": "version",
      "outputs": [
        {
          "internalType": "string",
          "name": "",
          "type": "string"
        }
      ],
      "stateMutability": "view",
      "type": "function",
      "constant": true
    },
    {
      "inputs": [
        {
          "internalType": "address",
          "name": "sender",
          "type": "address"
        },
        {
          "internalType": "address",
          "name": "receiver",
          "type": "address"
        },
        {
          "internalType": "uint256",
          "name": "amount",
          "type": "uint256"
        },
        {
          "internalType": "uint256",
          "name": "fee",
          "type": "uint256"
        },
        {
          "internalType": "uint256",
          "name": "nonce",
          "type": "uint256"
        },
        {
          "internalType": "uint256",
          "name": "expiry",
          "type": "uint256"
        },
        {
          "internalType": "address",
          "name": "relayer",
          "type": "address"
        },
        {
          "internalType": "uint8",
          "name": "v",
          "type": "uint8"
        },
        {
          "internalType": "bytes32",
          "name": "r",
          "type": "bytes32"
        },
        {
          "internalType": "bytes32",
          "name": "s",
          "type": "bytes32"
        }
      ],
      "name": "payWithSignature",
      "outputs": [],
      "stateMutability": "nonpayable",
      "type": "function"
    },
    {
      "inputs": [
        {
          "internalType": "address",
          "name": "sender",
          "type": "address"
        },
        {
          "internalType": "address",
          "name": "receiver",
          "type": "address"
        },
        {
          "internalType": "uint256",
          "name": "amount",
          "type": "uint256"
        },
        {
          "internalType": "uint256",
          "name": "fee",
          "type": "uint256"
        },
        {
          "internalType": "uint256",
          "name": "nonce",
          "type": "uint256"
        },
        {
          "internalType": "uint256",
          "name": "expiry",
          "type": "uint256"
        },
        {
          "internalType": "address",
          "name": "relayer",
          "type": "address"
        },
        {
          "internalType": "uint8",
          "name": "v",
          "type": "uint8"
        },
        {
          "internalType": "bytes32",
          "name": "r",
          "type": "bytes32"
        },
        {
          "internalType": "bytes32",
          "name": "s",
          "type": "bytes32"
        },
        {
          "components": [
            {
              "internalType": "address",
              "name": "owner",
              "type": "address"
            },
            {
              "internalType": "address",
              "name": "spender",
              "type": "address"
            },
            {
              "internalType": "uint256",
              "name": "value",
              "type": "uint256"
            },
            {
              "internalType": "uint256",
              "name": "deadline",
              "type": "uint256"
            },
            {
              "internalType": "uint8",
              "name": "v",
              "type": "uint8"
            },
            {
              "internalType": "bytes32",
              "name": "r",
              "type": "bytes32"
            },
            {
              "internalType": "bytes32",
              "name": "s",
              "type": "bytes32"
            }
          ],
          "internalType": "struct ACH.signedPermit",
          "name": "daiPermit",
          "type": "tuple"
        }
      ],
      "name": "pay",
      "outputs": [],
      "stateMutability": "nonpayable",
      "type": "function"
    }
  ],
  "bytecode": "0x60806040523480156200001157600080fd5b506040516200125a3803806200125a83398181016040528101906200003791906200016b565b60004690507f8b73c3c69bb8fe3d512ecc4cf759cc79239f7b179b0ffacaa9a75d522b39400f6040518060400160405280601881526020017f4175746f6d6174656420436c656172696e6720486f7573650000000000000000815250805190602001206040518060400160405280600181526020017f3100000000000000000000000000000000000000000000000000000000000000815250805190602001208330604051602001620000ef959493929190620001ca565b6040516020818303038152906040528051906020012060018190555081600260006101000a81548173ffffffffffffffffffffffffffffffffffffffff021916908373ffffffffffffffffffffffffffffffffffffffff160217905550505062000289565b60008151905062000165816200026f565b92915050565b6000602082840312156200017e57600080fd5b60006200018e8482850162000154565b91505092915050565b620001a28162000227565b82525050565b620001b3816200023b565b82525050565b620001c48162000265565b82525050565b600060a082019050620001e16000830188620001a8565b620001f06020830187620001a8565b620001ff6040830186620001a8565b6200020e6060830185620001b9565b6200021d608083018462000197565b9695505050505050565b6000620002348262000245565b9050919050565b6000819050919050565b600073ffffffffffffffffffffffffffffffffffffffff82169050919050565b6000819050919050565b6200027a8162000227565b81146200028657600080fd5b50565b610fc180620002996000396000f3fe608060405234801561001057600080fd5b50600436106100885760003560e01c80637ecebe001161005b5780637ecebe0014610103578063a9b5099714610133578063dd4321071461014f578063f3e9e6e81461016d57610088565b806306fdde031461008d5780633644e515146100ab5780634530cee0146100c957806354fd4d50146100e5575b600080fd5b61009561018b565b6040516100a29190610d83565b60405180910390f35b6100b36101c4565b6040516100c09190610c8a565b60405180910390f35b6100e360048036038101906100de91906107f5565b6101ca565b005b6100ed61053d565b6040516100fa9190610d83565b60405180910390f35b61011d600480360381019061011891906107cc565b610576565b60405161012a9190610e05565b60405180910390f35b61014d600480360381019061014891906108d0565b61058e565b005b61015761068c565b6040516101649190610d68565b60405180910390f35b6101756106b2565b6040516101829190610c8a565b60405180910390f35b6040518060400160405280601881526020017f4175746f6d6174656420436c656172696e6720486f757365000000000000000081525081565b60015481565b600073ffffffffffffffffffffffffffffffffffffffff168a73ffffffffffffffffffffffffffffffffffffffff16141580156102b2575060016102377ff2faaf63b6c0cff21364eb36e463733c74c857a4297e60aba90f98eb0747e68860001b8c8c8c8c8c8c8c6106d9565b848484604051600081526020016040526040516102579493929190610d23565b6020604051602081039080840390855afa158015610279573d6000803e3d6000fd5b5050506020604051035173ffffffffffffffffffffffffffffffffffffffff168a73ffffffffffffffffffffffffffffffffffffffff16145b6102f1576040517f08c379a00000000000000000000000000000000000000000000000000000000081526004016102e890610de5565b60405180910390fd5b6000808b73ffffffffffffffffffffffffffffffffffffffff1673ffffffffffffffffffffffffffffffffffffffff168152602001908152602001600020600081548092919060010191905055861461037f576040517f08c379a000000000000000000000000000000000000000000000000000000000815260040161037690610dc5565b60405180910390fd5b600085148061038e5750844211155b6103cd576040517f08c379a00000000000000000000000000000000000000000000000000000000081526004016103c490610da5565b60405180910390fd5b600260009054906101000a900473ffffffffffffffffffffffffffffffffffffffff1673ffffffffffffffffffffffffffffffffffffffff166323b872dd8b868a6040518463ffffffff1660e01b815260040161042c93929190610be4565b602060405180830381600087803b15801561044657600080fd5b505af115801561045a573d6000803e3d6000fd5b505050506040513d601f19601f8201168201806040525081019061047e91906109c0565b50600260009054906101000a900473ffffffffffffffffffffffffffffffffffffffff1673ffffffffffffffffffffffffffffffffffffffff166323b872dd8b8b8b6040518463ffffffff1660e01b81526004016104de93929190610be4565b602060405180830381600087803b1580156104f857600080fd5b505af115801561050c573d6000803e3d6000fd5b505050506040513d601f19601f8201168201806040525081019061053091906109c0565b5050505050505050505050565b6040518060400160405280600181526020017f310000000000000000000000000000000000000000000000000000000000000081525081565b60006020528060005260406000206000915090505481565b600260009054906101000a900473ffffffffffffffffffffffffffffffffffffffff1673ffffffffffffffffffffffffffffffffffffffff1663d505accf8260000160208101906105df91906107cc565b8360200160208101906105f291906107cc565b8460400135856060013586608001602081019061060f91906109e9565b8760a001358860c001356040518863ffffffff1660e01b815260040161063b9796959493929190610c1b565b600060405180830381600087803b15801561065557600080fd5b505af1158015610669573d6000803e3d6000fd5b5050505061067f8b8b8b8b8b8b8b8b8b8b6101ca565b5050505050505050505050565b600260009054906101000a900473ffffffffffffffffffffffffffffffffffffffff1681565b7ff2faaf63b6c0cff21364eb36e463733c74c857a4297e60aba90f98eb0747e68860001b81565b600060015489898989898989896040516020016106fd989796959493929190610ca5565b60405160208183030381529060405280519060200120604051602001610724929190610bad565b60405160208183030381529060405280519060200120905098975050505050505050565b60008135905061075781610f18565b92915050565b60008151905061076c81610f2f565b92915050565b60008135905061078181610f46565b92915050565b600060e0828403121561079957600080fd5b81905092915050565b6000813590506107b181610f5d565b92915050565b6000813590506107c681610f74565b92915050565b6000602082840312156107de57600080fd5b60006107ec84828501610748565b91505092915050565b6000806000806000806000806000806101408b8d03121561081557600080fd5b60006108238d828e01610748565b9a505060206108348d828e01610748565b99505060406108458d828e016107a2565b98505060606108568d828e016107a2565b97505060806108678d828e016107a2565b96505060a06108788d828e016107a2565b95505060c06108898d828e01610748565b94505060e061089a8d828e016107b7565b9350506101006108ac8d828e01610772565b9250506101206108be8d828e01610772565b9150509295989b9194979a5092959850565b60008060008060008060008060008060006102208c8e0312156108f257600080fd5b60006109008e828f01610748565b9b505060206109118e828f01610748565b9a505060406109228e828f016107a2565b99505060606109338e828f016107a2565b98505060806109448e828f016107a2565b97505060a06109558e828f016107a2565b96505060c06109668e828f01610748565b95505060e06109778e828f016107b7565b9450506101006109898e828f01610772565b93505061012061099b8e828f01610772565b9250506101406109ad8e828f01610787565b9150509295989b509295989b9093969950565b6000602082840312156109d257600080fd5b60006109e08482850161075d565b91505092915050565b6000602082840312156109fb57600080fd5b6000610a09848285016107b7565b91505092915050565b610a1b81610e47565b82525050565b610a2a81610e65565b82525050565b610a41610a3c82610e65565b610efd565b82525050565b610a5081610ea6565b82525050565b6000610a6182610e20565b610a6b8185610e2b565b9350610a7b818560208601610eca565b610a8481610f07565b840191505092915050565b6000610a9c600283610e3c565b91507f19010000000000000000000000000000000000000000000000000000000000006000830152600282019050919050565b6000610adc600f83610e2b565b91507f7061796d656e74206578706972656400000000000000000000000000000000006000830152602082019050919050565b6000610b1c600d83610e2b565b91507f696e76616c6964206e6f6e6365000000000000000000000000000000000000006000830152602082019050919050565b6000610b5c600f83610e2b565b91507f696e76616c6964207061796d656e7400000000000000000000000000000000006000830152602082019050919050565b610b9881610e8f565b82525050565b610ba781610e99565b82525050565b6000610bb882610a8f565b9150610bc48285610a30565b602082019150610bd48284610a30565b6020820191508190509392505050565b6000606082019050610bf96000830186610a12565b610c066020830185610a12565b610c136040830184610b8f565b949350505050565b600060e082019050610c30600083018a610a12565b610c3d6020830189610a12565b610c4a6040830188610b8f565b610c576060830187610b8f565b610c646080830186610b9e565b610c7160a0830185610a21565b610c7e60c0830184610a21565b98975050505050505050565b6000602082019050610c9f6000830184610a21565b92915050565b600061010082019050610cbb600083018b610a21565b610cc8602083018a610a12565b610cd56040830189610a12565b610ce26060830188610b8f565b610cef6080830187610b8f565b610cfc60a0830186610b8f565b610d0960c0830185610b8f565b610d1660e0830184610a12565b9998505050505050505050565b6000608082019050610d386000830187610a21565b610d456020830186610b9e565b610d526040830185610a21565b610d5f6060830184610a21565b95945050505050565b6000602082019050610d7d6000830184610a47565b92915050565b60006020820190508181036000830152610d9d8184610a56565b905092915050565b60006020820190508181036000830152610dbe81610acf565b9050919050565b60006020820190508181036000830152610dde81610b0f565b9050919050565b60006020820190508181036000830152610dfe81610b4f565b9050919050565b6000602082019050610e1a6000830184610b8f565b92915050565b600081519050919050565b600082825260208201905092915050565b600081905092915050565b6000610e5282610e6f565b9050919050565b60008115159050919050565b6000819050919050565b600073ffffffffffffffffffffffffffffffffffffffff82169050919050565b6000819050919050565b600060ff82169050919050565b6000610eb182610eb8565b9050919050565b6000610ec382610e6f565b9050919050565b60005b83811015610ee8578082015181840152602081019050610ecd565b83811115610ef7576000848401525b50505050565b6000819050919050565b6000601f19601f8301169050919050565b610f2181610e47565b8114610f2c57600080fd5b50565b610f3881610e59565b8114610f4357600080fd5b50565b610f4f81610e65565b8114610f5a57600080fd5b50565b610f6681610e8f565b8114610f7157600080fd5b50565b610f7d81610e99565b8114610f8857600080fd5b5056fea26469706673582212207470dc8b3586af650d86f6bb6a8a28f1a00272a41437636c698cb5088c601ca864736f6c634300060c0033",
  "immutableReferences": {},
  "source": "// SPDX-License-Identifier: UNLICENSED\n\npragma solidity ^0.6.12;\npragma experimental ABIEncoderV2;\n\ninterface TokenLike { \n  function transferFrom(address from, address to, uint256 amount) external returns (bool);\n  function permit(address owner, address spender, uint value, uint deadline, uint8 v, bytes32 r, bytes32 s) external; \n}\n\ncontract ACH {\n\n    struct signedPermit {\n        address owner; \n        address spender; \n        uint value; \n        uint deadline; \n        uint8 v; \n        bytes32 r;\n        bytes32 s;\n    }\n\n    mapping (address => uint256) public nonces;\n\n    bytes32   public DOMAIN_SEPARATOR;\n    TokenLike public pai;\n\n    // keccak256(\"pay(address sender, address receiver, uint amount, uint fee, uint nonce, uint expiry, address relayer, uint8 v, bytes32 r, bytes32 s, signedPermit calldata daiPermit)\")\n    bytes32 public constant PAY_TYPEHASH = 0xf2faaf63b6c0cff21364eb36e463733c74c857a4297e60aba90f98eb0747e688;\n    string  public constant version = \"1\";\n    string  public constant name = \"Automated Clearing House\";\n\n    constructor(address paiAddress) public {\n        uint chainId;\n        assembly {\n            chainId := chainid()\n        }\n\n        DOMAIN_SEPARATOR = keccak256(\n            abi.encode(\n                keccak256('EIP712Domain(string name,string version,uint256 chainId,address verifyingContract)'),\n                keccak256(bytes(name)),\n                keccak256(bytes(version)),\n                chainId,\n                address(this)\n            )\n        );\n\n        pai = TokenLike(paiAddress);\n    }\n\n    function digest(\n        bytes32 hash, \n        address sender, \n        address receiver, \n        uint amount, \n        uint fee, \n        uint nonce, \n        uint expiry, \n        address relayer \n    ) internal view returns (bytes32) {\n        return keccak256(abi.encodePacked(\"\\x19\\x01\", DOMAIN_SEPARATOR, keccak256(abi.encode(hash, sender, receiver, amount, fee, nonce, expiry, relayer))));\n    }\n\n    // Transfer @amount dai to the receiver from the sender\n    function payWithSignature(\n        address sender, \n        address receiver, \n        uint amount, \n        uint fee, \n        uint nonce,\n        uint expiry, \n        address relayer, \n        uint8 v, bytes32 r, bytes32 s\n    ) public {\n        require(sender != address(0) && \n                sender == ecrecover(digest(PAY_TYPEHASH, sender, receiver, amount, fee, nonce, expiry, relayer), v, r, s), \n                \"invalid payment\");\n        require(nonce  == nonces[sender]++, \"invalid nonce\");\n        require(expiry == 0 || now <= expiry, \"payment expired\");\n        pai.transferFrom(sender, relayer, fee);\n        pai.transferFrom(sender, receiver, amount);\n    }\n\n    function pay(address sender, address receiver, uint amount, uint fee, uint nonce,\n                     uint expiry, address relayer, uint8 v, bytes32 r, bytes32 s,\n                     signedPermit calldata daiPermit) external {\n    pai.permit(daiPermit.owner, daiPermit.spender, daiPermit.value, daiPermit.deadline, daiPermit.v, daiPermit.r, daiPermit.s);\n    payWithSignature(sender, receiver, amount, fee, nonce, expiry, relayer, v, r, s);\n  }\n}",
  "sourcePath": "/Users/federico/src-git/myo.matic-tokens/contracts/ACH.sol",
  "compiler": {
    "name": "solc",
    "version": "0.6.12+commit.27d51765.Emscripten.clang"
  },
  "schemaVersion": "3.3.3",
  "updatedAt": "2021-02-19T16:14:42.509Z",
  "networkType": "ethereum",
  "devdoc": {
    "kind": "dev",
    "methods": {},
    "version": 1
  },
  "userdoc": {
    "kind": "user",
    "methods": {},
    "version": 1
  }
}